{
  "_format": "hh-sol-artifact-1",
  "contractName": "MonadDeathmatch",
  "sourceName": "contracts/MonadDeathmatch.sol",
  "abi": [
    {
      "inputs": [],
      "stateMutability": "nonpayable",
      "type": "constructor"
    },
    {
      "anonymous": false,
      "inputs": [
        {
          "indexed": false,
          "internalType": "address",
          "name": "better",
          "type": "address"
        },
        {
          "indexed": false,
          "internalType": "address",
          "name": "predictedWinner",
          "type": "address"
        },
        {
          "indexed": false,
          "internalType": "uint256",
          "name": "amount",
          "type": "uint256"
        }
      ],
      "name": "BetPlaced",
      "type": "event"
    },
    {
      "anonymous": false,
      "inputs": [
        {
          "indexed": false,
          "internalType": "address",
          "name": "better",
          "type": "address"
        },
        {
          "indexed": false,
          "internalType": "address[]",
          "name": "predictedTop10",
          "type": "address[]"
        },
        {
          "indexed": false,
          "internalType": "uint256",
          "name": "amount",
          "type": "uint256"
        }
      ],
      "name": "BetPlacedForTop10",
      "type": "event"
    },
    {
      "anonymous": false,
      "inputs": [
        {
          "indexed": false,
          "internalType": "address",
          "name": "eliminated",
          "type": "address"
        }
      ],
      "name": "DailyElimination",
      "type": "event"
    },
    {
      "anonymous": false,
      "inputs": [
        {
          "indexed": false,
          "internalType": "uint256",
          "name": "poolId",
          "type": "uint256"
        },
        {
          "indexed": false,
          "internalType": "uint256",
          "name": "timestamp",
          "type": "uint256"
        }
      ],
      "name": "NewPoolCreated",
      "type": "event"
    },
    {
      "anonymous": false,
      "inputs": [
        {
          "indexed": false,
          "internalType": "address",
          "name": "participant",
          "type": "address"
        }
      ],
      "name": "ParticipantJoined",
      "type": "event"
    },
    {
      "anonymous": false,
      "inputs": [
        {
          "indexed": false,
          "internalType": "address",
          "name": "winner",
          "type": "address"
        },
        {
          "indexed": false,
          "internalType": "uint256",
          "name": "reward",
          "type": "uint256"
        },
        {
          "indexed": false,
          "internalType": "uint256",
          "name": "phase",
          "type": "uint256"
        }
      ],
      "name": "PhaseWinner",
      "type": "event"
    },
    {
      "anonymous": false,
      "inputs": [
        {
          "indexed": false,
          "internalType": "uint256",
          "name": "poolId",
          "type": "uint256"
        },
        {
          "indexed": false,
          "internalType": "uint256",
          "name": "timestamp",
          "type": "uint256"
        }
      ],
      "name": "PoolStarted",
      "type": "event"
    },
    {
      "inputs": [],
      "name": "ENTRY_FEE",
      "outputs": [
        {
          "internalType": "uint256",
          "name": "",
          "type": "uint256"
        }
      ],
      "stateMutability": "view",
      "type": "function"
    },
    {
      "inputs": [],
      "name": "MAX_PARTICIPANTS",
      "outputs": [
        {
          "internalType": "uint256",
          "name": "",
          "type": "uint256"
        }
      ],
      "stateMutability": "view",
      "type": "function"
    },
    {
      "inputs": [
        {
          "internalType": "uint256",
          "name": "_poolId",
          "type": "uint256"
        },
        {
          "internalType": "address",
          "name": "predictedWinner",
          "type": "address"
        }
      ],
      "name": "betOnFinalWinner",
      "outputs": [],
      "stateMutability": "payable",
      "type": "function"
    },
    {
      "inputs": [
        {
          "internalType": "uint256",
          "name": "_poolId",
          "type": "uint256"
        },
        {
          "internalType": "address[]",
          "name": "predictedTop10",
          "type": "address[]"
        }
      ],
      "name": "betOnTop10",
      "outputs": [],
      "stateMutability": "payable",
      "type": "function"
    },
    {
      "inputs": [],
      "name": "bettingConfig",
      "outputs": [
        {
          "internalType": "uint256",
          "name": "minBetAmount",
          "type": "uint256"
        },
        {
          "internalType": "uint256",
          "name": "maxBetAmount",
          "type": "uint256"
        },
        {
          "internalType": "uint256",
          "name": "bettingEndDay",
          "type": "uint256"
        },
        {
          "internalType": "uint256",
          "name": "maxBetsPerUser",
          "type": "uint256"
        }
      ],
      "stateMutability": "view",
      "type": "function"
    },
    {
      "inputs": [],
      "name": "createNewPool",
      "outputs": [],
      "stateMutability": "nonpayable",
      "type": "function"
    },
    {
      "inputs": [
        {
          "internalType": "uint256",
          "name": "_poolId",
          "type": "uint256"
        }
      ],
      "name": "eliminateDaily",
      "outputs": [],
      "stateMutability": "nonpayable",
      "type": "function"
    },
    {
      "inputs": [],
      "name": "gameState",
      "outputs": [
        {
          "internalType": "uint256",
          "name": "firstPhaseReward",
          "type": "uint256"
        },
        {
          "internalType": "uint256",
          "name": "secondPhaseReward",
          "type": "uint256"
        },
        {
          "internalType": "uint256",
          "name": "finalReward",
          "type": "uint256"
        },
        {
          "internalType": "uint256",
          "name": "projectCommission",
          "type": "uint256"
        },
        {
          "internalType": "address",
          "name": "finalWinnerGuess",
          "type": "address"
        }
      ],
      "stateMutability": "view",
      "type": "function"
    },
    {
      "inputs": [
        {
          "internalType": "uint256",
          "name": "_poolId",
          "type": "uint256"
        }
      ],
      "name": "getParticipantsCount",
      "outputs": [
        {
          "internalType": "uint256",
          "name": "",
          "type": "uint256"
        }
      ],
      "stateMutability": "view",
      "type": "function"
    },
    {
      "inputs": [
        {
          "internalType": "uint256",
          "name": "_poolId",
          "type": "uint256"
        },
        {
          "internalType": "address",
          "name": "_user",
          "type": "address"
        }
      ],
      "name": "getUserBettingInfo",
      "outputs": [
        {
          "internalType": "uint256",
          "name": "betCount",
          "type": "uint256"
        },
        {
          "internalType": "uint256",
          "name": "totalBetAmount",
          "type": "uint256"
        },
        {
          "internalType": "bool",
          "name": "hasBetOnTop10",
          "type": "bool"
        },
        {
          "internalType": "bool",
          "name": "hasBetOnFinal",
          "type": "bool"
        }
      ],
      "stateMutability": "view",
      "type": "function"
    },
    {
      "inputs": [
        {
          "internalType": "address",
          "name": "_user",
          "type": "address"
        }
      ],
      "name": "getUserPools",
      "outputs": [
        {
          "internalType": "uint256[]",
          "name": "",
          "type": "uint256[]"
        }
      ],
      "stateMutability": "view",
      "type": "function"
    },
    {
      "inputs": [
        {
          "internalType": "uint256",
          "name": "_poolId",
          "type": "uint256"
        },
        {
          "internalType": "address",
          "name": "participant",
          "type": "address"
        }
      ],
      "name": "isParticipant",
      "outputs": [
        {
          "internalType": "bool",
          "name": "",
          "type": "bool"
        }
      ],
      "stateMutability": "view",
      "type": "function"
    },
    {
      "inputs": [
        {
          "internalType": "uint256",
          "name": "_poolId",
          "type": "uint256"
        }
      ],
      "name": "joinPool",
      "outputs": [],
      "stateMutability": "payable",
      "type": "function"
    },
    {
      "inputs": [],
      "name": "owner",
      "outputs": [
        {
          "internalType": "address",
          "name": "",
          "type": "address"
        }
      ],
      "stateMutability": "view",
      "type": "function"
    },
    {
      "inputs": [],
      "name": "poolCount",
      "outputs": [
        {
          "internalType": "uint256",
          "name": "",
          "type": "uint256"
        }
      ],
      "stateMutability": "view",
      "type": "function"
    },
    {
      "inputs": [
        {
          "internalType": "uint256",
          "name": "",
          "type": "uint256"
        }
      ],
      "name": "pools",
      "outputs": [
        {
          "internalType": "uint256",
          "name": "id",
          "type": "uint256"
        },
        {
          "internalType": "uint256",
          "name": "totalPool",
          "type": "uint256"
        },
        {
          "internalType": "uint256",
          "name": "currentDay",
          "type": "uint256"
        },
        {
          "internalType": "uint256",
          "name": "startTime",
          "type": "uint256"
        },
        {
          "internalType": "bool",
          "name": "isActive",
          "type": "bool"
        }
      ],
      "stateMutability": "view",
      "type": "function"
    },
    {
      "inputs": [
        {
          "internalType": "uint256",
          "name": "",
          "type": "uint256"
        },
        {
          "internalType": "address",
          "name": "",
          "type": "address"
        }
      ],
      "name": "userBetting",
      "outputs": [
        {
          "internalType": "uint256",
          "name": "betCount",
          "type": "uint256"
        },
        {
          "internalType": "uint256",
          "name": "totalBetAmount",
          "type": "uint256"
        },
        {
          "internalType": "bool",
          "name": "hasBetOnTop10",
          "type": "bool"
        },
        {
          "internalType": "bool",
          "name": "hasBetOnFinal",
          "type": "bool"
        }
      ],
      "stateMutability": "view",
      "type": "function"
    },
    {
      "inputs": [
        {
          "internalType": "address",
          "name": "",
          "type": "address"
        },
        {
          "internalType": "uint256",
          "name": "",
          "type": "uint256"
        }
      ],
      "name": "userPools",
      "outputs": [
        {
          "internalType": "uint256",
          "name": "",
          "type": "uint256"
        }
      ],
      "stateMutability": "view",
      "type": "function"
    },
    {
      "stateMutability": "payable",
      "type": "receive"
    }
  ],
  "bytecode": "0x60806040523480156200001157600080fd5b50336000806101000a81548173ffffffffffffffffffffffffffffffffffffffff021916908373ffffffffffffffffffffffffffffffffffffffff16021790555062000062620000f460201b60201c565b600a600560000181905550600f60056001018190555060326005600201819055506019600560030181905550604051806080016040528067016345785d8a00008152602001678ac7230489e800008152602001601981526020016003815250600a6000820151816000015560208201518160010155604082015181600201556060820151816003015590505062000266565b600160008154809291906200010990620001db565b919050555060006002600060015481526020019081526020016000209050600154816000018190555060018160060160006101000a81548160ff021916908315150217905550428160050181905550600181600401819055507f9b8e7ac98026c000e0574fa64945d9dc5d9a4ba9eca62130cbb1b51661f068b9600154426040516200019792919062000239565b60405180910390a150565b7f4e487b7100000000000000000000000000000000000000000000000000000000600052601160045260246000fd5b6000819050919050565b6000620001e882620001d1565b91507fffffffffffffffffffffffffffffffffffffffffffffffffffffffffffffffff82036200021d576200021c620001a2565b5b600182019050919050565b6200023381620001d1565b82525050565b600060408201905062000250600083018562000228565b6200025f602083018462000228565b9392505050565b6127fc80620002766000396000f3fe60806040526004361061010d5760003560e01c80639c725fda11610095578063f3baf07011610064578063f3baf0701461036d578063f525cb6814610398578063f5f48998146103c3578063f6d361cc14610400578063f835c32a1461042b57610114565b80639c725fda146102a6578063a91a6350146102bd578063ac4afa38146102fd578063d1f9c24d1461033e57610114565b80634b05d258116100dc5780634b05d258146101b75780636fb3cdd0146101d3578063758d9b89146102015780638da5cb5b1461023e5780639816af581461026957610114565b80631064aa55146101195780631d37d513146101565780632e7ae77c1461017f57806334e7a19f1461019b57610114565b3661011457005b600080fd5b34801561012557600080fd5b50610140600480360381019061013b919061191c565b61046b565b60405161014d919061196b565b60405180910390f35b34801561016257600080fd5b5061017d60048036038101906101789190611986565b61049c565b005b610199600480360381019061019491906119b3565b610921565b005b6101b560048036038101906101b09190611986565b610c2d565b005b6101d160048036038101906101cc9190611a58565b610f4b565b005b3480156101df57600080fd5b506101e861125c565b6040516101f89493929190611ab8565b60405180910390f35b34801561020d57600080fd5b50610228600480360381019061022391906119b3565b61127a565b6040516102359190611b18565b60405180910390f35b34801561024a57600080fd5b506102536112e5565b6040516102609190611b42565b60405180910390f35b34801561027557600080fd5b50610290600480360381019061028b9190611b5d565b611309565b60405161029d9190611c48565b60405180910390f35b3480156102b257600080fd5b506102bb6113a0565b005b3480156102c957600080fd5b506102e460048036038101906102df91906119b3565b61144a565b6040516102f49493929190611c6a565b60405180910390f35b34801561030957600080fd5b50610324600480360381019061031f9190611986565b6114a1565b604051610335959493929190611caf565b60405180910390f35b34801561034a57600080fd5b506103536114e4565b604051610364959493929190611d02565b60405180910390f35b34801561037957600080fd5b50610382611528565b60405161038f919061196b565b60405180910390f35b3480156103a457600080fd5b506103ad61152d565b6040516103ba919061196b565b60405180910390f35b3480156103cf57600080fd5b506103ea60048036038101906103e59190611986565b611533565b6040516103f7919061196b565b60405180910390f35b34801561040c57600080fd5b50610415611556565b604051610422919061196b565b60405180910390f35b34801561043757600080fd5b50610452600480360381019061044d91906119b3565b611562565b6040516104629493929190611c6a565b60405180910390f35b6003602052816000526040600020818154811061048757600080fd5b90600052602060002001600091509150505481565b60008054906101000a900473ffffffffffffffffffffffffffffffffffffffff1673ffffffffffffffffffffffffffffffffffffffff163373ffffffffffffffffffffffffffffffffffffffff161461052a576040517f08c379a000000000000000000000000000000000000000000000000000000000815260040161052190611db2565b60405180910390fd5b60006002600083815260200190815260200160002090508060060160009054906101000a900460ff16610592576040517f08c379a000000000000000000000000000000000000000000000000000000000815260040161058990611e1e565b60405180910390fd5b60008160010180549050116105dc576040517f08c379a00000000000000000000000000000000000000000000000000000000081526004016105d390611e8a565b60405180910390fd5b6003816002018054905010610626576040517f08c379a000000000000000000000000000000000000000000000000000000000815260040161061d90611ef6565b60405180910390fd5b60005b600381108015610640575060008260010180549050115b156108835760008260010180549050424385600101805490508560405160200161066d9493929190611f37565b6040516020818303038152906040528051906020012060001c6106909190611fb4565b905060008360010182815481106106aa576106a9611fe5565b5b9060005260206000200160009054906101000a900473ffffffffffffffffffffffffffffffffffffffff16905083600201819080600181540180825580915050600190039060005260206000200160009091909190916101000a81548173ffffffffffffffffffffffffffffffffffffffff021916908373ffffffffffffffffffffffffffffffffffffffff16021790555083600101600185600101805490506107549190612043565b8154811061076557610764611fe5565b5b9060005260206000200160009054906101000a900473ffffffffffffffffffffffffffffffffffffffff168460010183815481106107a6576107a5611fe5565b5b9060005260206000200160006101000a81548173ffffffffffffffffffffffffffffffffffffffff021916908373ffffffffffffffffffffffffffffffffffffffff1602179055508360010180548061080257610801612077565b5b6001900381819060005260206000200160006101000a81549073ffffffffffffffffffffffffffffffffffffffff021916905590557fee9486bbe79bed431791bc54da3535362c171a6d54f3caa75972db425019b05e816040516108669190611b42565b60405180910390a15050808061087b906120a6565b915050610629565b50600a8160040154036108a05761089b8260016115fc565b6108f3565b60148160040154036108bc576108b78260026115fc565b6108f2565b601e8160040154036108f1576108d38260036115fc565b60008160060160006101000a81548160ff0219169083151502179055505b5b5b806004016000815480929190610908906120a6565b919050555080600201600061091d9190611840565b5050565b600060026000848152602001908152602001600020905060006004600085815260200190815260200160002060003373ffffffffffffffffffffffffffffffffffffffff1673ffffffffffffffffffffffffffffffffffffffff16815260200190815260200160002090508160060160009054906101000a900460ff166109dd576040517f08c379a00000000000000000000000000000000000000000000000000000000081526004016109d490611e1e565b60405180910390fd5b600a6002015482600401541115610a29576040517f08c379a0000000000000000000000000000000000000000000000000000000008152600401610a209061213a565b60405180910390fd5b600a60000154341015610a71576040517f08c379a0000000000000000000000000000000000000000000000000000000008152600401610a68906121a6565b60405180910390fd5b600a60010154341115610ab9576040517f08c379a0000000000000000000000000000000000000000000000000000000008152600401610ab090612212565b60405180910390fd5b600a60030154816000015410610b04576040517f08c379a0000000000000000000000000000000000000000000000000000000008152600401610afb9061227e565b60405180910390fd5b8060020160019054906101000a900460ff1615610b56576040517f08c379a0000000000000000000000000000000000000000000000000000000008152600401610b4d906122ea565b60405180910390fd5b806000016000815480929190610b6b906120a6565b919050555034816001016000828254610b84919061230a565b9250508190555060018160020160016101000a81548160ff02191690831515021790555082600560040160006101000a81548173ffffffffffffffffffffffffffffffffffffffff021916908373ffffffffffffffffffffffffffffffffffffffff1602179055507f3fe3739e8f82288ea9b537327542d88a4989dfc21c88c5c0c9261a4933520291338434604051610c1f9392919061233e565b60405180910390a150505050565b60006002600083815260200190815260200160002090508060060160009054906101000a900460ff16610c95576040517f08c379a0000000000000000000000000000000000000000000000000000000008152600401610c8c90611e1e565b60405180910390fd5b6064816001018054905010610cdf576040517f08c379a0000000000000000000000000000000000000000000000000000000008152600401610cd6906123c1565b60405180910390fd5b8060070160003373ffffffffffffffffffffffffffffffffffffffff1673ffffffffffffffffffffffffffffffffffffffff16815260200190815260200160002060009054906101000a900460ff1615610d6e576040517f08c379a0000000000000000000000000000000000000000000000000000000008152600401610d659061242d565b60405180910390fd5b670de0b6b3a76400003414610db8576040517f08c379a0000000000000000000000000000000000000000000000000000000008152600401610daf90612499565b60405180910390fd5b80600101339080600181540180825580915050600190039060005260206000200160009091909190916101000a81548173ffffffffffffffffffffffffffffffffffffffff021916908373ffffffffffffffffffffffffffffffffffffffff16021790555060018160070160003373ffffffffffffffffffffffffffffffffffffffff1673ffffffffffffffffffffffffffffffffffffffff16815260200190815260200160002060006101000a81548160ff02191690831515021790555034816003016000828254610e8b919061230a565b92505081905550600360003373ffffffffffffffffffffffffffffffffffffffff1673ffffffffffffffffffffffffffffffffffffffff1681526020019081526020016000208290806001815401808255809150506001900390600052602060002001600090919091909150556064816001018054905003610f1057610f0f6113a0565b5b7f6cd71e167cab47cb2ccb763aada102691b585b848adb6395f1da4ac187b9214a33604051610f3f9190611b42565b60405180910390a15050565b600060026000858152602001908152602001600020905060006004600086815260200190815260200160002060003373ffffffffffffffffffffffffffffffffffffffff1673ffffffffffffffffffffffffffffffffffffffff16815260200190815260200160002090508160060160009054906101000a900460ff16611007576040517f08c379a0000000000000000000000000000000000000000000000000000000008152600401610ffe90611e1e565b60405180910390fd5b600a6002015482600401541115611053576040517f08c379a000000000000000000000000000000000000000000000000000000000815260040161104a9061213a565b60405180910390fd5b600a6000015434101561109b576040517f08c379a0000000000000000000000000000000000000000000000000000000008152600401611092906121a6565b60405180910390fd5b600a600101543411156110e3576040517f08c379a00000000000000000000000000000000000000000000000000000000081526004016110da90612212565b60405180910390fd5b600a6003015481600001541061112e576040517f08c379a00000000000000000000000000000000000000000000000000000000081526004016111259061227e565b60405180910390fd5b8060020160009054906101000a900460ff1615611180576040517f08c379a000000000000000000000000000000000000000000000000000000000815260040161117790612505565b60405180910390fd5b600a84849050146111c6576040517f08c379a00000000000000000000000000000000000000000000000000000000081526004016111bd90612571565b60405180910390fd5b8060000160008154809291906111db906120a6565b9190505550348160010160008282546111f4919061230a565b9250508190555060018160020160006101000a81548160ff0219169083151502179055507fdb94ca064b655dd15ed8398b691b30f294296f53291f9e7ff002dca9adaec00b3385853460405161124d9493929190612654565b60405180910390a15050505050565b600a8060000154908060010154908060020154908060030154905084565b60006002600084815260200190815260200160002060070160008373ffffffffffffffffffffffffffffffffffffffff1673ffffffffffffffffffffffffffffffffffffffff16815260200190815260200160002060009054906101000a900460ff16905092915050565b60008054906101000a900473ffffffffffffffffffffffffffffffffffffffff1681565b6060600360008373ffffffffffffffffffffffffffffffffffffffff1673ffffffffffffffffffffffffffffffffffffffff16815260200190815260200160002080548060200260200160405190810160405280929190818152602001828054801561139457602002820191906000526020600020905b815481526020019060010190808311611380575b50505050509050919050565b600160008154809291906113b3906120a6565b919050555060006002600060015481526020019081526020016000209050600154816000018190555060018160060160006101000a81548160ff021916908315150217905550428160050181905550600181600401819055507f9b8e7ac98026c000e0574fa64945d9dc5d9a4ba9eca62130cbb1b51661f068b96001544260405161143f929190612694565b60405180910390a150565b6004602052816000526040600020602052806000526040600020600091509150508060000154908060010154908060020160009054906101000a900460ff16908060020160019054906101000a900460ff16905084565b60026020528060005260406000206000915090508060000154908060030154908060040154908060050154908060060160009054906101000a900460ff16905085565b60058060000154908060010154908060020154908060030154908060040160009054906101000a900473ffffffffffffffffffffffffffffffffffffffff16905085565b606481565b60015481565b600060026000838152602001908152602001600020600101805490509050919050565b670de0b6b3a764000081565b60008060008060006004600088815260200190815260200160002060008773ffffffffffffffffffffffffffffffffffffffff1673ffffffffffffffffffffffffffffffffffffffff1681526020019081526020016000209050806000015481600101548260020160009054906101000a900460ff168360020160019054906101000a900460ff1694509450945094505092959194509250565b6000600260008481526020019081526020016000209050600081600101805490501161165d576040517f08c379a000000000000000000000000000000000000000000000000000000000815260040161165490611e8a565b60405180910390fd5b60006001830361168f576064600560000154836003015461167e91906126bd565b61168891906126ff565b9050611771565b600283036116bf57606460056001015483600301546116ae91906126bd565b6116b891906126ff565b9050611770565b606460056002015483600301546116d691906126bd565b6116e091906126ff565b90506000606460056003015484600301546116fb91906126bd565b61170591906126ff565b905060008054906101000a900473ffffffffffffffffffffffffffffffffffffffff1673ffffffffffffffffffffffffffffffffffffffff166108fc829081150290604051600060405180830381858888f1935050505015801561176d573d6000803e3d6000fd5b50505b5b60008260010160008154811061178a57611789611fe5565b5b9060005260206000200160009054906101000a900473ffffffffffffffffffffffffffffffffffffffff1690508073ffffffffffffffffffffffffffffffffffffffff166108fc839081150290604051600060405180830381858888f193505050501580156117fd573d6000803e3d6000fd5b507f5a99c1b4bef369b037346c3e1250b5e1b37f15f21ba3b047b33472a8f9063e5d8183866040516118319392919061278f565b60405180910390a15050505050565b508054600082559060005260206000209081019061185e9190611861565b50565b5b8082111561187a576000816000905550600101611862565b5090565b600080fd5b600080fd5b600073ffffffffffffffffffffffffffffffffffffffff82169050919050565b60006118b382611888565b9050919050565b6118c3816118a8565b81146118ce57600080fd5b50565b6000813590506118e0816118ba565b92915050565b6000819050919050565b6118f9816118e6565b811461190457600080fd5b50565b600081359050611916816118f0565b92915050565b600080604083850312156119335761193261187e565b5b6000611941858286016118d1565b925050602061195285828601611907565b9150509250929050565b611965816118e6565b82525050565b6000602082019050611980600083018461195c565b92915050565b60006020828403121561199c5761199b61187e565b5b60006119aa84828501611907565b91505092915050565b600080604083850312156119ca576119c961187e565b5b60006119d885828601611907565b92505060206119e9858286016118d1565b9150509250929050565b600080fd5b600080fd5b600080fd5b60008083601f840112611a1857611a176119f3565b5b8235905067ffffffffffffffff811115611a3557611a346119f8565b5b602083019150836020820283011115611a5157611a506119fd565b5b9250929050565b600080600060408486031215611a7157611a7061187e565b5b6000611a7f86828701611907565b935050602084013567ffffffffffffffff811115611aa057611a9f611883565b5b611aac86828701611a02565b92509250509250925092565b6000608082019050611acd600083018761195c565b611ada602083018661195c565b611ae7604083018561195c565b611af4606083018461195c565b95945050505050565b60008115159050919050565b611b1281611afd565b82525050565b6000602082019050611b2d6000830184611b09565b92915050565b611b3c816118a8565b82525050565b6000602082019050611b576000830184611b33565b92915050565b600060208284031215611b7357611b7261187e565b5b6000611b81848285016118d1565b91505092915050565b600081519050919050565b600082825260208201905092915050565b6000819050602082019050919050565b611bbf816118e6565b82525050565b6000611bd18383611bb6565b60208301905092915050565b6000602082019050919050565b6000611bf582611b8a565b611bff8185611b95565b9350611c0a83611ba6565b8060005b83811015611c3b578151611c228882611bc5565b9750611c2d83611bdd565b925050600181019050611c0e565b5085935050505092915050565b60006020820190508181036000830152611c628184611bea565b905092915050565b6000608082019050611c7f600083018761195c565b611c8c602083018661195c565b611c996040830185611b09565b611ca66060830184611b09565b95945050505050565b600060a082019050611cc4600083018861195c565b611cd1602083018761195c565b611cde604083018661195c565b611ceb606083018561195c565b611cf86080830184611b09565b9695505050505050565b600060a082019050611d17600083018861195c565b611d24602083018761195c565b611d31604083018661195c565b611d3e606083018561195c565b611d4b6080830184611b33565b9695505050505050565b600082825260208201905092915050565b7f4f6e6c79206f776e657200000000000000000000000000000000000000000000600082015250565b6000611d9c600a83611d55565b9150611da782611d66565b602082019050919050565b60006020820190508181036000830152611dcb81611d8f565b9050919050565b7f506f6f6c206973206e6f74206163746976650000000000000000000000000000600082015250565b6000611e08601283611d55565b9150611e1382611dd2565b602082019050919050565b60006020820190508181036000830152611e3781611dfb565b9050919050565b7f4e6f207061727469636970616e74730000000000000000000000000000000000600082015250565b6000611e74600f83611d55565b9150611e7f82611e3e565b602082019050919050565b60006020820190508181036000830152611ea381611e67565b9050919050565b7f4461696c7920656c696d696e6174696f6e20646f6e6500000000000000000000600082015250565b6000611ee0601683611d55565b9150611eeb82611eaa565b602082019050919050565b60006020820190508181036000830152611f0f81611ed3565b9050919050565b6000819050919050565b611f31611f2c826118e6565b611f16565b82525050565b6000611f438287611f20565b602082019150611f538286611f20565b602082019150611f638285611f20565b602082019150611f738284611f20565b60208201915081905095945050505050565b7f4e487b7100000000000000000000000000000000000000000000000000000000600052601260045260246000fd5b6000611fbf826118e6565b9150611fca836118e6565b925082611fda57611fd9611f85565b5b828206905092915050565b7f4e487b7100000000000000000000000000000000000000000000000000000000600052603260045260246000fd5b7f4e487b7100000000000000000000000000000000000000000000000000000000600052601160045260246000fd5b600061204e826118e6565b9150612059836118e6565b925082820390508181111561207157612070612014565b5b92915050565b7f4e487b7100000000000000000000000000000000000000000000000000000000600052603160045260246000fd5b60006120b1826118e6565b91507fffffffffffffffffffffffffffffffffffffffffffffffffffffffffffffffff82036120e3576120e2612014565b5b600182019050919050565b7f42657474696e6720706572696f6420656e646564000000000000000000000000600082015250565b6000612124601483611d55565b915061212f826120ee565b602082019050919050565b6000602082019050818103600083015261215381612117565b9050919050565b7f42657420616d6f756e7420746f6f206c6f770000000000000000000000000000600082015250565b6000612190601283611d55565b915061219b8261215a565b602082019050919050565b600060208201905081810360008301526121bf81612183565b9050919050565b7f42657420616d6f756e7420746f6f206869676800000000000000000000000000600082015250565b60006121fc601383611d55565b9150612207826121c6565b602082019050919050565b6000602082019050818103600083015261222b816121ef565b9050919050565b7f4d61782062657473207265616368656400000000000000000000000000000000600082015250565b6000612268601083611d55565b915061227382612232565b602082019050919050565b600060208201905081810360008301526122978161225b565b9050919050565b7f416c726561647920626574206f6e2066696e616c2077696e6e65720000000000600082015250565b60006122d4601b83611d55565b91506122df8261229e565b602082019050919050565b60006020820190508181036000830152612303816122c7565b9050919050565b6000612315826118e6565b9150612320836118e6565b925082820190508082111561233857612337612014565b5b92915050565b60006060820190506123536000830186611b33565b6123606020830185611b33565b61236d604083018461195c565b949350505050565b7f506f6f6c2069732066756c6c0000000000000000000000000000000000000000600082015250565b60006123ab600c83611d55565b91506123b682612375565b602082019050919050565b600060208201905081810360008301526123da8161239e565b9050919050565b7f416c7265616479206a6f696e6564207468697320706f6f6c0000000000000000600082015250565b6000612417601883611d55565b9150612422826123e1565b602082019050919050565b600060208201905081810360008301526124468161240a565b9050919050565b7f4d7573742073656e642065786163746c792031204d4f4e000000000000000000600082015250565b6000612483601783611d55565b915061248e8261244d565b602082019050919050565b600060208201905081810360008301526124b281612476565b9050919050565b7f416c726561647920626574206f6e20746f702031300000000000000000000000600082015250565b60006124ef601583611d55565b91506124fa826124b9565b602082019050919050565b6000602082019050818103600083015261251e816124e2565b9050919050565b7f4d75737420707265646963742065786163746c7920313020706c617965727300600082015250565b600061255b601f83611d55565b915061256682612525565b602082019050919050565b6000602082019050818103600083015261258a8161254e565b9050919050565b600082825260208201905092915050565b6000819050919050565b6125b5816118a8565b82525050565b60006125c783836125ac565b60208301905092915050565b60006125e260208401846118d1565b905092915050565b6000602082019050919050565b60006126038385612591565b935061260e826125a2565b8060005b858110156126475761262482846125d3565b61262e88826125bb565b9750612639836125ea565b925050600181019050612612565b5085925050509392505050565b60006060820190506126696000830187611b33565b818103602083015261267c8185876125f7565b905061268b604083018461195c565b95945050505050565b60006040820190506126a9600083018561195c565b6126b6602083018461195c565b9392505050565b60006126c8826118e6565b91506126d3836118e6565b92508282026126e1816118e6565b915082820484148315176126f8576126f7612014565b5b5092915050565b600061270a826118e6565b9150612715836118e6565b92508261272557612724611f85565b5b828204905092915050565b6000819050919050565b600061275561275061274b84611888565b612730565b611888565b9050919050565b60006127678261273a565b9050919050565b60006127798261275c565b9050919050565b6127898161276e565b82525050565b60006060820190506127a46000830186612780565b6127b1602083018561195c565b6127be604083018461195c565b94935050505056fea264697066735822122026159b4d308db85d2da60594992fbc17973fe0e96ccf25caa5e49fef898c139564736f6c63430008140033",
  "linkReferences": {},
  "deployedLinkReferences": {}
}